:100000000A128A11FC2F00308A000408840A820731
:0A0010000034883413340034003447
:1002EA00831203139101121508004130831203137C
:1002FA009F008030831603139F00080083160313A0
:10030A008615061686160610861007110800F800CC
:10031A00F401F5017008F200F3017208F60073089F
:10032A00F700781C99299A29A0297608F407031856
:10033A00F50A7708F50701300310F60DF70DFF3EB1
:10034A00031DA1290310F80C7808031DAD29AE2955
:10035A0096297508F1007408F0000800043071024B
:10036A00003003197002031CBB29BC29C029FF30C5
:10037A00F0000330F1007108F3007008F200031076
:10038A00F30CF20C0310F30CF20C72088312031331
:10039A00950070080339F20004300310F20DFF3E95
:1003AA00031DD2291708CF39720497000800831653
:1003BA00031388017108803AFF0080307F02031D11
:1003CA00E829103070020318EB29EC29F22983126C
:1003DA000313081488100811172A7108803AFF00BD
:1003EA0080307F02031DFB2910307002031CFE2996
:1003FA00FF29122A7108803AFF0080307F02031D0C
:10040A00082A2430700203180B2A0C2A122A831293
:10041A000313081088140811172A831203130810EB
:10042A0088100815080083120313861D1D2A1E2A28
:10043A002C2A0030F0000130F1000A128A11B3218F
:10044A000A128A1183120313061486105C2A061EE6
:10045A002F2A302A3E2AFF30F0000330F1000A1218
:10046A008A11B3210A128A11831203130614861001
:10047A005C2A861E412A422A502AFF30F0000330A5
:10048A00F1000A128A11B3210A128A118312031384
:10049A00061086145C2A0030F000F1000A128A1154
:1004AA00B3210A128A118312031306108610080058
:1004BA00831203132008A4002108A5002208A6001D
:1004CA002308A70002300310A40DA50DA60DA70D41
:1004DA00FF3E031D682A2708F3002608F2002508B4
:1004EA00F1002408F0000130F7003130F6002D3019
:1004FA00F5000030F4000A128A11A7220A128A11A2
:10050A007008FF3E83120313A80071080318013E06
:10051A00FF3EA90001302902003003192802031CFA
:10052A00972A982A9C2AFF30A8000030A900280898
:10053A0083160313920004308312031392000C30C3
:10054A00970008000030FC000030FB000030FA0081
:10055A000030F90073087204710470040319B62A92
:10056A00B72A042BFD01FD0AC72A0130F80003103F
:10057A00F00DF10DF20DF30DF80BBC2A0130FF005E
:10058A007F08FD07F31FCA2ACB2ABA2A0130F800CE
:10059A000310F90DFA0DFB0DFC0DF80BCD2A7308AB
:1005AA007702031DE22A72087602031DE22A710805
:1005BA007502031DE22A70087402031CE52AE62A62
:1005CA00F52A7008F4027108031C710FF50272080B
:1005DA00031C720FF6027308031C730FF7027914D7
:1005EA0001300310F30CF20CF10CF00CFF3E031D6A
:1005FA00F62A0130FD02031D032B042BCB2A7C08AB
:10060A00F3007B08F2007A08F1007908F00008008C
:10061A000310831203133C0D3D0DC3004308031D51
:10062A00172B182B212B0030BD000030BC000030E6
:10063A00BB000030BA00842B3A08BE003B08BF005A
:10064A003C08C0003D08C1001F300310C10CC00C9B
:10065A00BF0CBE0CFF3E031D2A2B3E08C200BC176E
:10066A00FF30BA05FF30BB05FF30BC050030BD05C1
:10067A009630C302C31F422B432B5D2B4308803A9B
:10068A00973E0318492B4A2B4B2B182B013003108A
:10069A00BD0CBC0CBB0CBA0CFF3E031D4C2B01302D
:1006AA00FF007F08C307031D5B2B5C2B4B2B742BAE
:1006BA0020304302031C622B632B6F2B182B013053
:1006CA00BE000310BA0DBB0DBC0DBD0DBE0B662BD3
:1006DA000130C3024308031D732B742B642B420899
:1006EA000319782B792B842BBA09BB09BC09BD09DC
:1006FA00BA0A0319BB0A0319BC0A0319BD0A08007E
:10070A000A128A1183210A128A11003083120313F2
:10071A00A3000030A2001330A1008830A0000A1202
:10072A008A115D220A128A110A128A1175210A1285
:10073A008A110A128A117A210A128A110A128A1154
:10074A0018220A128A11831203131F151F19AE2BBE
:10075A00AF2BAB2B1E08C500831603131E0883128A
:10076A000313C4004408F0004508F1000030F11BEF
:10077A00FF30F200F30001300A128A11FF230A1235
:10078A008A11730883120313A7007208A60071085E
:10079A00A5007008A4003E30A300F930A200DB30A7
:1007AA00A1002330A0000A128A11B7240A128A1162
:1007BA00831203132308BD002208BC002108BB00D2
:1007CA002008BA000A128A110D230A128A1183120A
:1007DA0003133B08C7003A08C6004708F100460859
:1007EA00F0000A128A11DC210A128A11A32B0A12BA
:1007FA008A110028F80078080319042C052C192CF2
:10080A00F31F082C092C192C7009FA007109FB0036
:10081A007209FC007309FD00FA0A0319FB0A03199D
:10082A00FC0A0319FD0A212C7308FD007208FC005A
:10083A007108FB007008FA007308720471047004EE
:10084A00031D282C292C322C0030F3000030F20032
:10085A000030F1000030F000B62C9630F900422C3E
:10086A000130FF007F08F90701300310FD0CFC0C72
:10087A00FB0CFA0CFF3E031D3A2CFE307D05031DCE
:10088A00472C482C352C642C0130FF007F08F907CF
:10089A000130FA07003003180130FB070030031853
:1008AA000130FC07003003180130FD070130031046
:1008BA00FD0CFC0CFB0CFA0CFF3E031D5C2CFF30FC
:1008CA007D05031D692C6A2C492C762C0130F9020E
:1008DA000130F4000310FA0DFB0DFC0DFD0DF40BB5
:1008EA006F2CFC1B792C7A2C802C0230790203188D
:1008FA007F2C802C6B2C7918832C842C8C2CFF3029
:10090A00FA05FF30FB057F30FC05FF30FD050310BB
:10091A00F90C7908F400F501F601F7011830031013
:10092A00F40DF50DF60DF70DFF3E031D942C74081A
:10093A00FA047508FB047608FC047708FD047808B5
:10094A000319A82CA92CAE2CF31FAC2CAD2CAE2C61
:10095A00FD177D08F3007C08F2007B08F1007A0895
:10096A00F00008008312031323088039AD0023081E
:10097A00A8002807B300A21FC32CC42CC52C33140B
:10098A0033080319C92CCA2CD92C330A031DCE2CBF
:10099A00CF2CD72C0030A3000030A2000030A100D9
:1009AA000030A000A217E12C0030A3000030A20002
:1009BA000030A1000030A00027088039FF007F081E
:1009CA00AD062708A8002807B200A61FED2CEE2CBA
:1009DA00EF2C321432080319F32CF42C032D320AAB
:1009EA00031DF82CF92C012D0030A7000030A600B9
:1009FA000030A5000030A400A6170B2D0030A70078
:100A0A000030A6000030A5000030A4003208031907
:100A1A000F2D102D152D3308031D142D152D1E2DE8
:100A2A000030A3000030A2000030A1000030A00076
:100A3A00FB2F2008F00026080A128A118C210A12BC
:100A4A008A11710883120313B9007008B8003808B4
:100A5A00A800A901AA01AB012B08B1002A08B0001D
:100A6A002908AF002808AE003908A800A901AA0180
:100A7A00AB012B08B7002A08B6002908B5002808D8
:100A8A00B4002108F00025080A128A118C210A12E2
:100A9A008A11710883120313B9007008B800380864
:100AAA00A800A901AA01AB012808AE072908031169
:100ABA000318013E0319622DAF072A080311031810
:100ACA00013E0319692DB0072B0803110318013ED3
:100ADA000319702DB1073908A800A901AA01AB01B1
:100AEA002808B407290803110318013E03197E2DAB
:100AFA00B5072A0803110318013E0319852DB60705
:100B0A002B0803110318013E03198C2DB70722087D
:100B1A00F00024080A128A118C210A128A1171081B
:100B2A0083120313B9007008B8003808A800A90195
:100B3A00AA01AB012808AE07290803110318013ED0
:100B4A000319A82DAF072A0803110318013E031938
:100B5A00AF2DB0072B0803110318013E0319B62D58
:100B6A00B1073908A800A901AA01AB012808B407EE
:100B7A00290803110318013E0319C42DB5072A08D1
:100B8A0003110318013E0319CB2DB6072B080311D5
:100B9A000318013E0319D22DB7070830A800031025
:100BAA00AE0DAF0DB00DB10DA80BD42D2108F0007C
:100BBA0024080A128A118C210A128A1171088312D6
:100BCA000313B9007008B8003808A8003908A9004A
:100BDA00AA01AB012808AE07290803110318013E30
:100BEA000319F82DAF072A0803110318013E031948
:100BFA00FF2DB0072B0803110318013E0319062E17
:100C0A00B1072008F00025080A128A118C210A125D
:100C1A008A11710883120313B9007008B8003808E2
:100C2A00A8003908A900AA01AB012808AE072908BB
:100C3A0003110318013E0319232EAF072A080311D3
:100C4A000318013E03192A2EB0072B0803110318B3
:100C5A00013E0319312EB1070830A8000310AE0D6A
:100C6A00AF0DB00DB10DA80B332E2008F0002408EB
:100C7A000A128A118C210A128A117108831203132B
:100C8A00B9007008B8003808A8003908A900AA01F4
:100C9A00AB012808AE07290803110318013E0319FE
:100CAA00572EAF072A0803110318013E03195E2EB7
:100CBA00B0072B0803110318013E0319652EB1076B
:100CCA002108F00026080A128A118C210A128A11B8
:100CDA00710883120313B9007008B8003808A80015
:100CEA003908A900AA01AB012808B4072908031189
:100CFA000318013E0319822EB5072A0803110318A7
:100D0A00013E0319892EB6072B0803110318013E69
:100D1A000319902EB7072208F00025080A128A1133
:100D2A008C210A128A11710883120313B900700800
:100D3A00B8003808A8003908A900AA01AB01280898
:100D4A00B407290803110318013E0319AD2EB5078C
:100D5A002A0803110318013E0319B42EB6072B08FB
:100D6A0003110318013E0319BB2EB7072208F0002E
:100D7A0026080A128A118C210A128A117108831212
:100D8A000313B9007008B8003808A8003908A90088
:100D9A00AA01AB0108300310A80DA90DAA0DAB0DCD
:100DAA00FF3E031DD02E2808B40729080311031893
:100DBA00013E0319E12EB5072A0803110318013E63
:100DCA000319E82EB6072B0803110318013E03196D
:100DDA00EF2EB7072E08A8002F08A9003008AA008E
:100DEA003108AB0018300310AB0CAA0CA90CA80CE4
:100DFA00FF3E031DF82E2808B4072908031103181B
:100E0A00013E0319092FB5072A0803110318013EE9
:100E1A000319102FB6072B0803110318013E0319F3
:100E2A00172FB7070830A8000310AE0DAF0DB00D8D
:100E3A00B10DA80B192F33083207A800A901A90D73
:100E4A002808823EB80029080318013EFF3EB9006F
:100E5A004B2F0130A8000310B40DB50DB60DB70D18
:100E6A00A80B302FB11F3A2F3B2F3C2F34140130DF
:100E7A00A8000310AE0DAF0DB00DB10DA80B3E2F9B
:100E8A00FF30B8070318B90AFF30B907B61F4E2F4B
:100E9A004F2F2E2FB201B11F532F542F702FFF3017
:100EAA002E05A800FF302F05A900FF303005AA0043
:100EBA007F303105AB002B082A04290428040319C2
:100ECA00672F682F6B2FB201B20A702F341C6E2F56
:100EDA006F2F702F682F32080319742F752FA62FC2
:100EEA000130B407003003180130B5070030031889
:100EFA000130B607003003180130B707371C862FB8
:100F0A00872FA62F3408A8003508A9003608AA009A
:100F1A003708AB000130AC002B0DAB0CAA0CA90CA6
:100F2A00A80CAC0B912F2B08B7002A08B600290889
:100F3A00B5002808B4000130B8070318B90A003010
:100F4A00B9073908803AFF0080307F02031DAF2FAE
:100F5A00FF303802031CB22FB32FBE2F7F3083120B
:100F6A000313B7008030B6000030B5000030B4007B
:100F7A00EF2F831203133908803AFF0080307F0273
:100F8A00031DC92F013038020318CC2FCD2FD92FBA
:100F9A00003083120313B7000030B6000030B500EA
:100FAA000030B400AD01EF2F831203133808B300E9
:100FBA00FF30B405FF30B5057F30B6050030B70500
:100FCA00331CE82FE92FEA2FB6173308A8000310BD
:100FDA00280CB7002D08FF007F08B7043708A300C4
:100FEA003608A2003508A1003408A00008008301D1
:060FFA000A128A11852B8A
:02400E00793FF8
:00000001FF
